:020000040800F2
:10000000281300245D030008B38500087F4C000816
:10001000AF85000839170008F999000800000000B2
:10002000000000000000000000000000358A000809
:100030008718000800000000B5850008318B000813
:1000400077030008770300087703000877030008A8
:100050007703000877030008D31800087703000827
:100060007703000877030008770300087703000888
:100070007703000877030008770300087703000878
:100080007703000877030008770300087703000868
:100090007703000877030008770300087703000858
:1000A0007703000877030008770300087703000848
:1000B00077030008CD8B000877030008770300085A
:1000C0007703000877030008770300087703000828
:1000D000770300087703000877030008A999000850
:1000E000770300087703000800000000770300088A
:1000F00077030008770300087703000877030008F8
:1001000077030008770300087703000877030008E7
:1001100077030008770300087703000877030008D7
:1001200077030008770300087703000877030008C7
:1001300077030008770300087703000877030008B7
:1001400000000000000000000000000000000000AF
:100150007703000877030008770300087703000897
:100160007703000877030008770300087703000887
:1001700077030008770300087703000800000000F9
:100180007703000877030008770300087703000867
:100190007703000877030008770300087703000857
:1001A0007703000877030008770300087703000847
:1001B0007703000877030008770300087703000837
:1001C0007703000877030008770300087703000827
:1001D0007703000877030008770300087703000817
:1001E0007703000877030008770300087703000807
:1001F00077030008770300087703000877030008F7
:1002000077030008770300087703000877030008E6
:1002100077030008770300087703000877030008D6
:100220007703000877030008770300080000000048
:100230007703000877030008000000007703000838
:1002400077030008770300087703000877030008A6
:100250007703000877030008770300087703000896
:100260007703000877030008770300087703000886
:1002700077030008770300087703000800000000F8
:10028000770300080000000077030008000000006A
:10029000000000007703000800F002F800F04FF8BB
:1002A0000AA090E8000C82448344AAF10107DA45D1
:1002B00001D100F044F8AFF2090EBAE80F0013F0D4
:1002C000010F18BFFB1A43F001031847F0F50000B7
:1002D00010F60000103A24BF78C878C1FAD8520747
:1002E00024BF30C830C144BF04680C6070470000B0
:1002F0000023002400250026103A28BF78C1FBD82F
:10030000520728BF30C148BF0B60704766290AF00A
:10031000CA83642900F00281782900F03B81002023
:1003200070471FB50AF0BAFB00F0D4FC04000020AF
:1003300000210AF09DFBE0601FBD10B510BD00F06C
:10034000D1FD1146FFF7EDFF0AF008F900F0EFFDCF
:1003500003B4FFF7F2FF03BC09F00DFF0948804723
:1003600009480047FEE7FEE7FEE7FEE7FEE7FEE797
:10037000FEE7FEE7FEE7FEE704480549054A064BAF
:1003800070470000398B000899020008280D0024EE
:1003900028130024280F0024280F002453EA020CFD
:1003A00000F069802DE9F04B4FF00006002B1FBFD5
:1003B000B3FA83F503FA05F424FA05F65E4012BF9A
:1003C0001643B2FA82F502FA05F4C5F120051EBF04
:1003D00022FA05FC44EA0C04203556EA044C4FEAA4
:1003E000144418BF641C4FF000084FF000099042FD
:1003F00071EB030C39D3002919BFB1FA81F701FA67
:1004000007F6B0FA80F700FA07F6C7F120071EBF1B
:1004100020FA07FC46EA0C062037B6FBF4FCA7EBF3
:100420000507103F07F01F0BCBF120060CFA0BFB62
:100430002CFA06F644BFB3460026202FA4BF5E4622
:100440004FF0000B5BEA060C08BF4FF0010B19EBF5
:100450000B09ABFB027C48EB0608C01B06FB02CC79
:100460000BFB03CC71EB0C01C1E70B460246414686
:100470004846BDE8F08B13B54FF000004FF0000187
:10048000AFF30080BDE81C40704700000FB4044982
:1004900010B503AA029800F00BFC10BC5DF814FB29
:1004A000180000240FB41CB5074B06AA7B4469460C
:1004B0000090059800F0E3FB0020694600F0F2FB95
:1004C0001CBC5DF814FB0000F507000070B5044685
:1004D00085690068C10601D5302600E02026C007E6
:1004E00007D070BDD4E9012130469047206A401CF6
:1004F00020626D1EF6D570BD70B504468569007822
:10050000C00707D170BDD4E9012120209047206A9F
:10051000401C20626D1EF6D570BD00002DE9F04133
:100520000646002410687529314616A510D0AFF391
:100530000080002802DA404213A507E031688A07EC
:1005400001D512A502E0490704D511A5012401E057
:10055000AFF3008000210A2206F1240709E0B0FB76
:10056000F2FCB0FBF2F302FB1C003030785418466A
:10057000491C0028F3D123462A463046BDE8F04105
:1005800000F010B9000000002D0000002B0000005A
:100590002000000070B504460D4621461068AFF3F8
:1005A00000802188090502D50F4A7A4402E00E4AEC
:1005B0007A440E32002104F1240305E000F00F0616
:1005C0000009965D5E54491C0028F7D1207800236D
:1005D000000704D5702D02D009B102231132204644
:1005E000BDE8704000F0DEB81AF100002DE9F05FC0
:1005F000894604464FF0000ADFF824B1FB44C0F8F6
:1006000020A02046E168884700287DD0252806D014
:10061000D4E901219047206A401C2062F1E70025BF
:100620005F462046E16888472028064607DB312ED2
:1006300005D2B81910F8200C08B10543F1E7A80756
:1006400001D525F00405C4F81CA00027C4F818A0A3
:100650002A2E09D0304609F087FD38B304EB87080D
:10066000303EC8F8186019E059F8041B204604EB26
:1006700087029161E1688847012F064618D1E06939
:10068000002820DA25F020051DE0D8F8180000EB3E
:10069000800006EB40003038C8F818002046E168BA
:1006A0008847064609F060FD0028EED1012F0AD0E8
:1006B0002E2E08D12046E16888477F1C0646022F6F
:1006C00045F02005C4DBA069002803DA404245F06C
:1006D0000105A061E80701D025F01005A6B1A6F13B
:1006E0004100192802D8203645F400654A463146B3
:1006F000204625604D46FFF709FE60B1012807D06E
:10070000ED1D25F0070000E007E000F1080978E79B
:1007100005F1040975E730467AE7206ABDE8F09FE5
:10072000F0F0000010B5203AC0F00B80B1E818508E
:10073000203AA0E81850B1E81850A0E81850BFF4CB
:10074000F5AF5FEA027C24BFB1E81850A0E818506A
:1007500044BF18C918C0BDE810405FEA827C24BFBE
:1007600051F8043B40F8043B08BF7047D20728BF4C
:1007700031F8023B48BF11F8012B28BF20F8023B9B
:1007800048BF00F8012B704770477047704710B59D
:1007900000F0A4FA006810BD10B5044600F09EFAFF
:1007A000046010BD2DE9F0470D4699469246044677
:1007B00000F124080168880604D5E06921F01001E1
:1007C000216000E00120A84201DD471B00E0002776
:1007D000A1697A1902EB0900081AA0612078C00605
:1007E00002D42046FFF772FE002608E0D4E901217A
:1007F0001AF806009047206A401C761C20624E457D
:10080000F4DB2078C0060AD52046FFF75FFE06E03D
:10081000D4E9012130209047206A401C2062381E14
:10082000A7F10107F4DC07E0D4E9012118F805007D
:100830009047206A401C2062281EA5F10105F3DCC8
:100840002046FFF759FE2078000602D50220BDE8B9
:10085000F0870120FBE770472DE9FF4F0C461E464D
:100860004FF0FF378BB0D2E90001DDF860800A90CD
:100870008A46C1F30A5505B93D46002108464FF0A6
:100880000000BAF1000F00F4400005DA00EB800030
:100890004FF4400101EA50004FEA9059B9F1010FBD
:1008A00000DDB9460A9850EA4A000ED044F61050CE
:1008B000A5F2FF3545432F14B8F1000F1ED0754245
:1008C000291E1EDDC9F100021CE0B8F1010F4FF036
:1008D000000001D0302103E0F24305E02154401C28
:1008E000B042FBDB30460022002121540B99C1F8B5
:1008F0000880C1E900200FB0BDE8F08FBD1B6D1C62
:10090000DEE74A4600DA694206A800F071FA06AB53
:1009100093E8070003AB83E8070050460A9900F00C
:1009200043FB8DE80700A0F500501F3800900398A6
:10093000002D0ADD42F21F014A460844002303A9A4
:100940000390684600F0ACFD09E0A0F500504A466F
:100950001F38002303A90390684600F0B6FD8DE818
:1009600007000004000C03D04FF0FF30410800E006
:100970001046B8F1000F03D00022009215461EE089
:10098000751E05D400F0AEF9303262556D1EF9D5F2
:10099000B3460122084302D000227F1C04E02078E5
:1009A000302801D100227F1E002A099784D01DE043
:1009B000112D07DA00F096F9303262556D1C50EABD
:1009C0000102F5D1084302D00098C8B10EE0002121
:1009D000681E05E0235C625C63542254401E491C7F
:1009E0008142F7DBAB46A81B401E0990002004F8AB
:1009F0000B000B98099AC0F80880C0E9002B7AE731
:100A000011264FF0000857E72DE9F04F88460446BD
:100A1000D21D22F0070191B0D1E90001CDE90A0110
:100A200008F0ECFF02460B98C00F01D02D2007E024
:100A30002068810701D52B2002E0202101EAC000B7
:100A4000032A099001D0072A05DB034641462046C8
:100A500000F08EF90BE12078800601D5E06900E016
:100A60000620B8F1650F814606D0B8F1660F18D0A0
:100A7000B8F1670F70D131E00020B9F1110F00908B
:100A800001DB112301E009F101030AAA01A90CA865
:100A9000FFF7E2FEDDE90C70002609F1010583464F
:100AA00047E001204B4600904FF000470AAA01A9F9
:100AB0000CA8FFF7D1FEDDE90DB00C995D460026CC
:100AC00010B909F101000D18B9EB050003D4C0F10C
:100AD000FF3609F10105A5EB09002BE0B9F1010F83
:100AE00001DA4FF001090020B9F1110F00904846DA
:100AF00001DD112300E003460AAA01A90CA8FFF7B3
:100B0000ABFEDDE90C704D460026834620780007D9
:100B10000AD4AB4500DA5D4601A8012D04DD411978
:100B200011F8011C302907D04F4502DA17F1040FE4
:100B300004DA012082460FE06D1EEEE7002F02DC92
:100B4000ED1B3E4403E0781CA84200DD7D1CB81B71
:100B500000F1010A4FF000472078000703D4AA45AE
:100B600001DB4FF0FF3A0021B7F1004F0DF14308D0
:100B70008DF8431024D002202B23002F01DA7F426E
:100B80002D230A21021EA0F1010000DC5FB197FBBA
:100B9000F1FC97FBF1F201FB1C7C17460CF1300CC9
:100BA00008F801CDEEE7A8F10100037021880905DE
:100BB00001D5452100E06521A0F1010800F8011CE4
:100BC00009980FA9A1EB0807FF1D00B101204119E9
:100BD00001EBEA70A1693844081A401EA061207830
:100BE000C00602D42046FFF771FC099828B1D4E969
:100BF00001219047206A401C20622078C00622D53F
:100C00002046FFF763FC1EE0002E04DBB34502DD47
:100C100001A8805D00E03020D4E901219047206ADE
:100C2000401C2062761CAAF101005FEA000A0AD18A
:100C300000F050F8C0680168405CD4E90121904799
:100C4000206A401C2062281EA5F10105DCDC07E0BB
:100C5000D4E9012118F8010B9047206A401C20625A
:100C6000381EA7F10107F3DC2046FFF745FC0320FF
:100C700011B041E601694A1C02610878704700B56D
:100C80008FB0CDE901310021059105497944CDE9C5
:100C9000031011466846FFF7A9FC0FB000BD000025
:100CA000E5FFFFFF0A6802F8010B0A6070470000C9
:100CB000074B70B50D467B44FFF7E1FF044628461D
:100CC00000F008F910B14FF0FF3070BD204670BD44
:100CD0008798000000487047E80C002400487047DF
:100CE000C80C002430B5B0F10A024FEA900E71F141
:100CF00000034EEA817EB0EB0E0061EB91014FEAFA
:100D0000101E4EEA017E10EB0E0041EB11114FEA6E
:100D1000102E4EEA016E10EB0E0041EB11214FEA4E
:100D2000104E4EEA014E10EB0E0041EB11414018FF
:100D300041F100014FEAD00040EA41704FEAD10191
:100D400010EB80054FEA810444EA907444EB0104FF
:100D50006D1944EB0404521BA3414FF0000348BF3C
:100D60000A3200D530BD401C41F1000130BD000009
:100D70002DE9F0411F46044603260168072A01F4C5
:100D8000006004DB08B116A505E016A503E008B174
:100D900015A500E015A521F010002060A069C01E77
:100DA000A0610FB1401EA0612046FFF78FFB4FB13D
:100DB000D4E9012138469047206A401C2062C01CBB
:100DC000206206E0206AFAE7D4E9012115F8010B58
:100DD0009047761EF8D22046FFF78EFBBDE8F081E3
:100DE0004E414E006E616E00494E4600696E6600CF
:100DF0002DE9F047814616468AB0354878440DC83B
:100E00008DE80D0032487844801C03AC0DC884E89E
:100E10000D0041F69B300844372190FBF1F290FB26
:100E2000F1F5A5F1800501FB12041B3C02D56442DB
:100E3000012000E00020DFF898A080460027FA4457
:100E4000AAF1BE0A0EE0E0070AD03246684607EB78
:100E5000470101230AEB810100F037FB8DE8070011
:100E600064107F1C002CEED1194F7F44AE3F19E077
:100E7000E80715D007EB04100DF1180A90E80E00F2
:100E80008AE80E00C068F04201D1981908903246F5
:100E9000012306A903A800F018FB03AB83E80700B1
:100EA0006D10641C002DE3D14FF0010332466946FA
:100EB000B8F1000F03A802D000F0F2FA01E000F050
:100EC00004FBC9E90001C9F808200AB0BDE8F087B1
:100ED000A4EA0000007B00F08000704700487047E3
:100EE000C80C00247546FFF7F9FFAE4605006946B9
:100EF000534620F00700854618B020B5FFF73CFAAE
:100F0000BDE820404FF000064FF000074FF000080A
:100F10004FF0000B21F00701AC46ACE8C009ACE88B
:100F2000C009ACE8C009ACE8C0098D46704710B5EF
:100F30000446AFF300802046BDE81040FFF708BA32
:100F40004FF0013C50F8042B51F8043B9A4215D164
:100F5000A2EB0C03934313EACC130BD150F8042BF0
:100F600051F8043B9A4209D1A2EB0C03934313EAD4
:100F7000CC13E7D04FF00000704700BFD01A01BA81
:100F8000B1FA81F101F0180122FA01F0CB40C1F170
:100F90002001DBB2C0B2C01A2CFA01F3D11A91437E
:100FA00011EAC311E6D170475FEA400C08BF91F027
:100FB000000F4FEA8C234FEAC12243EA51514FEA16
:100FC0001C5018BF00F5F0404FEA300018BF41F048
:100FD00000415FEA6C5C00F02980BCF1FF3F08BF74
:100FE00040F080407047130C06BF12044FF0100C05
:100FF0004FF0000C130E04BF12020CF1080C130F7B
:1010000004BF12010CF1040C930F04BF92000CF109
:10101000020CD30F04BF52000CF1010C11464FF02B
:101020000002A0F11F00A0EB0C00704711F0004F70
:1010300008BF704731F000413FF4D5AF0B0C06BF3D
:1010400009044FF0100C4FF0000C0B0E04BF090206
:101050000CF1080C0B0F04BF09010CF1040C8B0FF1
:1010600004BF89000CF1020CCB0F04BF49000CF146
:10107000010CCCF12003A0EB0C0022FA03F302FADE
:101080000CF241EA030100F10100704720F07F4CAF
:1010900080EA030023F07F47ACEB070303F57C53A2
:1010A00000F0004003F1FF032DE980494FEA154BA2
:1010B00009B44FEA144325EA0B4E24EA03480FF221
:1010C000042606EB132749083E785FEA320203FB49
:1010D0000667C7F5000707FB06F64FEA54374FEAE5
:1010E000D64606F1020607FB066CCCF1005C4FEA1F
:1010F0001C472CEA074C07FB06F40CFB06F504EB37
:1011000015464FEA961634BF00204FF000404FEAD4
:10111000D13706FB07FC4FEA1C4C0CFB0BF7D21B2C
:1011200003FB0CF761EB07010CFB0EF7B0EB07407C
:1011300072EB17420CFB08F734BFA2EB0742B2EB8D
:10114000074261EB17414FEA0C444FEA910706FB57
:1011500007FC4FEA1C4C0CFB0BF7B0EBC74072EBE3
:10116000573203FB0CF734BFA2EBC742B2EBC742C6
:1011700061EB57310CFB0EF7B0EBC70072EB577207
:101180000CFB08F734BFA2EBC702B2EBC70261EB5E
:101190005771039F4FEA816141EA921104EBCC043D
:1011A0004FEAD1374FEA826206FB07FC42EA90120F
:1011B0004FEA80604FEA1C4C0CFB0BF7D21B03FB81
:1011C0000CF761EB07010CFB0EF7B0EB074072EB7D
:1011D00017420CFB08F734BFA2EB0742B2EB074201
:1011E00061EB17414FEA8C554FEA910704EB9C24C1
:1011F00006FB07FC4FEA1C4C0CFB0BF7B0EBC7409F
:1012000072EB573203FB0CF734BFA2EBC742B2EBD1
:10121000C74261EB57310CFB0EF7B0EBC70072EB26
:1012200057720CFB08F734BFA2EBC702B2EBC70240
:1012300061EB577115EB4C254FEA816141EA921140
:101240004FEA82624FEAD13742EA901206FB07FC6E
:1012500044F100044FEA80604FEA1C4C0CFB0BF792
:10126000D21B03FB0CF761EB07010CFB0EF7B0EB95
:10127000074072EB17420CFB08F734BFA2EB0742A2
:10128000B2EB074261EB174115EB1C154FEA8131B8
:1012900041EA92414FEA823242EA90424FEA80307C
:1012A0004FEA0C7644F1000448EA03434EEA0B4847
:1012B0004FF0000EB2EB080C71EB030724BF62463F
:1012C00039464EEB0E0E4FF0000B001852414941CB
:1012D0004BEB0B0BB2EB080C71EB03077BF1000B34
:1012E00024BF624639464EEB0E0E4FF0000B00183D
:1012F000524149414BEB0B0BB2EB080C71EB03076E
:101300007BF1000B24BF624639464EEB0E0E51EACC
:10131000020718BF46F0010616EB0E7655F10002E3
:1013200054F1000103D5BDE88901BDE80088BDE89E
:101330008901BDE80048B619524141EB0101A3F112
:101340000103704780807F7E7D7C7B7A7978777619
:1013500076757473727171706F6E6E6D6C6C6B6A92
:101360006A69686867666665646463636261616030
:10137000605F5F5E5E5D5D5C5C5B5B5A5A595958AD
:101380005857575656555555545453535252525117
:10139000515050504F4F4F4E4E4D4D4D4C4C4C4B6D
:1013A0004B4B4A4A4A4949494848484747474746B4
:1013B00046464545454444444443434343424242F0
:1013C00042414141002B9C4630D477002BD01CB5C4
:1013D0004FEA370703B44FF010004FF01001BAF195
:1013E000000F06D0BCF1000FDCBF40F0080040F059
:1013F00008014FF000000FBCBDE810400BF1010BDD
:10140000BBF1010F08BF5FEA170722BF12F101020B
:1014100011F101014FF0004143F1000300F00040E1
:1014200043EA00007047F9D35708D0E746EA06467A
:1014300013F1400F4FEA16461FDD13F1200FDFBFF7
:1014400016430A46002120335B42BED0C3F1200779
:1014500046EA064602FA07F74FEA164646EA070644
:10146000C3F1200722FA03F201FA07F721FA03F188
:101470004FF0000342EA0702A7E746EA020646EAFF
:1014800006464FEA164646EA0106BCBF46EA06464D
:10149000360C4FF000034FF000024FF0000194E7CC
:1014A0002DE9804C9A46934670B491E8380007C8FD
:1014B00031EA400C48BF34EA430C03D5FFF7E6FDA0
:1014C000FFF780FFF0BCBDE8008C2DE9804C9A4608
:1014D000934670B491E8380007C810F0804F08BFF9
:1014E00013F0804F03D100F005F8FFF76BFFF0BC5D
:1014F000BDE8008C20F07F4780EA030023F07F4C9A
:1015000007EB0C03A3F57C5300F00040A3F1FE03AE
:1015100092F0000F00F0B38095F0000F00F077809C
:101520002DE901494FEA11404FEA144621EA0048EB
:1015300000FB06FC24EA064708FB06F607FB08F852
:1015400000FB07F718EB06484CEB164C4FEA124B22
:1015500018EB07484FEA15464CEB174022EA0B4EB2
:101560000BFB06FC25EA06470EFB06F607FB0EFE04
:101570000BFB07F71EEB064E4CEB164C4FF000062C
:101580001EEB074E4CEB174B18EB0B0840F100001D
:1015900018EB0E0B58EB000840F100008F1A4FF0CB
:1015A00000013CBFC943661B14BFB5EB040C00210E
:1015B0003CBFC943F61B4FEA17444EEA8E0E27EA9A
:1015C00004454FEA1C4704FB07622CEA074C05FB65
:1015D00007F70CFB05F604FB0CFC16EB074642EB89
:1015E000174216EB0C4642EB1C421BEB060658EB6F
:1015F0000202414146EA9E0601D5BDE80189B619BD
:10160000524141EB0101A3F10103BDE801894FEA19
:1016100014454FEA114724EA054621EA074C05FB29
:1016200007F406FB07F70CFB06F105FB0CFC11EBBE
:10163000074144EB17444FEA124711EB0C4144EBCE
:101640001C4422EA074C05FB07F206FB07F70CFBDC
:1016500006F605FB0CFC16EB074642EB174216EBB1
:101660000C4642EB1C456A1854F1000148BF704714
:10167000B619524141EB0101A3F10103704795F006
:10168000000F37D04FEA11424FEA144721EA0246D1
:1016900024EA074C02FB07F106FB07F70CFB06F4F4
:1016A00002FB0CFC14EB074441EB17414FEA1547D2
:1016B00014EB0C4441EB1C4125EA074C02FB07F5F7
:1016C00006FB07F70CFB06F602FB0CFC16EB0746C5
:1016D00045EB174516EB0C4645EB1C42121951F130
:1016E000000148BF7047B619524141EB0101A3F117
:1016F000010370474FEA14454FEA114724EA0546B3
:1017000021EA074C05FB07F106FB07F70CFB06F285
:101710004FF0000605FB0CFC12EB074241EB1741B2
:1017200012EB0C4251EB1C4148BF7047921841EB41
:101730000101A3F10103704700BFFEE710B507F0F8
:10174000B9F807F069F80348006840F0040001495F
:10175000086010BD9CEF00E0F0B588B004460D466F
:1017600016460022002700234FF0AA0C1146521CF7
:101770000DF801C01146521C0DF801C04FF0060CC7
:101780001146521C0DF801C04FF0000C1146521CBE
:101790000DF801C0C4F3072C1146521C0DF801C00E
:1017A00004F0FF0C1146521C0DF801C0C5F3072CC4
:1017B0001146521C0DF801C005F0FF0C1046511CDB
:1017C000CAB20DF800C0C6F3072C1046511CCAB2AD
:1017D0000DF800C006F0FF0C1046511CCAB20DF8FF
:1017E00000C09C461046511CCAB20DF800C01046FD
:1017F000511CCAB20DF800C01046511CCAB20DF8F7
:1018000000C01046511CCAB20DF800C01046511C51
:10181000CAB20DF800C01046511CCAB20DF800C083
:101820001046511CCAB20DF800C01146501CC2B27D
:101830000DF801C01046511CCAB20DF800C0104688
:10184000511CCAB20DF800C0101FC0B28DF80300C1
:1018500000BF05E01DF803003844C7B2581CC3B2EE
:101860009342F7DB1046511CCAB20DF800700023FA
:1018700005E01DF8030009F0EDF8581CC3B29342CF
:10188000F7DB08B0F0BD70472DED040B82B09DED85
:10189000020ADDED040A20EE200ADDED030A9DEDCB
:1018A000051A00EEC10A8DED000A9DED020ADDED7C
:1018B000050A20EE200ADDED030A9DED041A00EE74
:1018C000810A8DED010A9DED000ADDED010A06B0E9
:1018D000704710B5012000F0BDFA10BD2DE9F04FA2
:1018E0008AB0044600266D49086800EBD0714910A3
:1018F00007916A480068401E069000251FE0B54227
:101900000FDA04EBC60103C9CDE9000104EBC60000
:1019100004EBC50206CA06C004EBC500DDE90012EF
:1019200006C0DDF81C8006E0A6EB0806404608EB82
:10193000D0714FEA6108B045F6DD46446D1C06984B
:101940008542DCDB5548006809900120089002E0E0
:101950000898401C0890099800EBD0714910099133
:101960000129F5D1894692E0A9F10100022101FA8D
:1019700000FA50460AEBD0714F10B7EE000A8DED19
:10198000040A9FED470A8DED050A00EE107AB8EEC5
:10199000C00B9FED441B81EE002BB7EEC20BB0EEE7
:1019A000404A08F0EBFB8DED020A00EE107AB8EE2B
:1019B000C00B9FED3C1B81EE003BB7EEC30BF0EE7E
:1019C000402A08F08FFFB1EE400A8DED030A002691
:1019D00058E0354642E005EB070B04EBCB00DDEDAC
:1019E000051A9DED041AD0ED010A90ED000AFFF7EB
:1019F0004BFF8DED000ACDED010A04EBC50090ED23
:101A0000000ADDED000A30EE600A04EBCB0080ED49
:101A1000000A04EBC50090ED010ADDED010A30EE8D
:101A2000600A04EBCB0080ED010A04EBC50090EDE9
:101A3000000ADDED000A30EE200A04EBC50080ED5F
:101A4000000A04EBC50090ED010ADDED010A30EE5D
:101A5000200A04EBC50080ED010A55440F480068D8
:101A6000401EA842B7DADDED031A9DED021ADDED46
:101A7000050A9DED040AFFF707FF8DED040ACDED81
:101A8000050A761C781EB042A3DA09F1010908980C
:101A900081457FF769AF0AB0BDE8F08F10000024E0
:101AA00000000000182D4454FB21094070B5044685
:101AB0001D460023B5F5804F13D154F822300C4851
:101AC0000340D1E9000640EA06108E6840EA06208D
:101AD0008E8940EA06408E693043034344F8223041
:101AE00003E06FF0704044F82200002070BD000059
:101AF0000000F0CF10B502460023086852F82030ED
:101B00001B480340D1E901042043CC6820430C6901
:101B100020434C6920438C692043CC6920430C6AE4
:101B200020434C6A20438C6A2043CC6A20430C6BD0
:101B300020438C6B20434C6B204303438868082868
:101B400001D143F04003086842F82030086BB0F53B
:101B5000801F05D1086818B110680C6B2043106015
:101B6000086818B110684C6B20431060002010BD4D
:101B70008004C0FF30B5034614460022601C53F8B1
:101B8000202002F04042D1E9000540EA05108D68AE
:101B900040EA05208D8940EA0545088A401E45EA4D
:101BA0000055087D801E45EA00608D692843024388
:101BB000601C43F82020186800F4801038B1586881
:101BC00020F47002088A401E42EA00525A60002047
:101BD00030BD30B50246002300240868012816D025
:101BE00013686FF30E03D1E901052843CD6828433C
:101BF0000D6928434D6928438D692843CD692843E1
:101C00000D6A28434D6A28430343136019E01368A3
:101C100023F4F843D1E9070528434D6A28430343D9
:101C200054686FF30E04D1E901052843CD682843B9
:101C30000D6928434D6928438D6928430443136087
:101C40005460002030BD0246506940EA41005061B6
:101C50000020704718B5034600200090D1E9000429
:101C600020438C68641E40EA4410CC6840EA44205B
:101C7000009000981861002018BD000070B5034660
:101C8000154600220024012D1FD09A6802F07042F0
:101C90000868401E4E68761E40EA06168868401E98
:101CA00046EA0026C868401E46EA0036088A401EFA
:101CB00046EA0046888A401E46EA0056087E401ED4
:101CC00046EA006002439A6022E09A6811480240A6
:101CD000C868401E0603888A401E46EA0050024338
:101CE000DC6804F070440868401E4E68761E40EAC6
:101CF00006168868401E46EA0026088A401E46EA04
:101D00000046087E401E46EA006004439A60DC609C
:101D1000002070BDFF0F0FFF10B504460CB9012065
:101D200010BD94F83500022803D0802060650120A2
:101D3000F6E734492068884205D333492068884251
:101D400001D8012000E00020C0B1042084F8350053
:101D50002C49206888420AD32B492068884206D83B
:101D60002068006820F001002168086048E02068D1
:101D7000006820F001002168086041E020680068E8
:101D800020F00E00216808601E49206888420AD3AE
:101D90001D492068884206D82068006820F00100AC
:101DA0002168086005E02068006820F001002168D3
:101DB0000860206E006820F48070216E086094F83E
:101DC0005C100120884011490860D4E9191048606E
:101DD000E06E40B1E06E006820F48070E16E086053
:101DE000D4E91C10486000BF002084F8340000BF14
:101DF000012084F83500206D10B12046216D884700
:101E000000208DE710000240B8040240045402583C
:101E10000348006840F00100014908607047000075
:101E20002004005810B50446012C0BD101210748AD
:101E300000F044F9012804D105480068401C044919
:101E4000086000E000BF00BF10BD000000000258A5
:101E50003C00002410B5044604480068204020B12E
:101E6000024804602046FFF7DDFF10BD88000058DF
:101E7000F8B502460B460021002600240020824DC2
:101E800000BFFCE0012707FA01F61F6807EA060415
:101E9000B4427CD15F68022F02D05F68122F1AD142
:101EA0004FEAD10C02F1200757F82C004F074FEAF8
:101EB000D76C0F2707FA0CF7B8434FEA417C4FEA7B
:101EC000DC6C1F6907FA0CF738434FEAD10C02F1BA
:101ED000200747F82C0010684FEA410C032707FA47
:101EE0000CF7B8431F7907F003074FEA410C07FAD4
:101EF0000CF7384310605F68012F08D05F68022F2D
:101F000005D05F68112F02D05F68122F17D190683B
:101F10004FEA410C032707FA0CF7B8434FEA410C8C
:101F2000DF6807FA0CF738439060506801278F404C
:101F3000B8431F79C7F300178F4038435060D0680B
:101F40004FEA410C032707FA0CF7B8434FEA410C5C
:101F50009F6807FA0CF73843D0605F6807F0805736
:101F6000B7F1805F95D100BF484F3F6847F0020747
:101F7000DFF818C1CCF8007067463F6807F0020729
:101F8000009700BF00BF424F4FEA910C00E075E0A0
:101F900057F82C008F074FEA177C0F2707FA0CF72A
:101FA000B8433C4FBA4201D100272DE03A4FBA4224
:101FB00001D1012728E0394FBA4201D1022723E09D
:101FC000374FBA4201D103271EE0364FBA4201D142
:101FD000042719E0344FBA4201D1052714E0334FEA
:101FE000BA4201D106270FE0314FBA4201D107278B
:101FF0000AE0304FBA4201D1082705E02E4FBA421D
:1020000001D1092700E00A274FEA817C4FEA1C7CB6
:1020100007FA0CF738431E4F4FEA910C47F82C0093
:102020002868A0435F6807F48037B7F5803F00D188
:10203000204328606868A0435F6807F40037B7F55D
:10204000003F00D1204368604FF0B0473868A0439C
:102050005F6807F48017B7F5801F00D120434FF069
:10206000B04738607868A0435F6807F40017B7F599
:10207000001F00D120434FF0B0477860491C102961
:10208000FFF400AFF8BD000080000058F44402588F
:1020900008040058000002580004025800080258C2
:1020A000000C025800100258001402580018025880
:1020B000001C0258002002580024025802461369EE
:1020C0000B400BB1012000E00020704742694A40FC
:1020D000426170470AB1018300E04183704700000C
:1020E0000148006870470000200000240348006891
:1020F000034909780844014908607047200000241A
:102100002800002410B5032000F0AEFA0F2000F0E4
:1021100007F808B1012010BD00F058FA0020FAE7D6
:1021200070B504460E4800784FF47A71B1FBF0F0B8
:102130000C490968B1FBF0F5284602F023FA08B112
:10214000012070BD102C07D200222146501E00F045
:102150004EFA0548046001E00120F2E70020F0E7B4
:1021600028000024040000242400002470B5044644
:102170000E46154600BF94F8A000012801D10220A8
:1021800070BD012084F8A00000BF022084F8A100E7
:1021900005EB850101EBC50204F1380101EB82007A
:1021A00034223146FEF7BEFA2A463146204606F072
:1021B000F5F801202168486284F8A10000BF0020E2
:1021C00084F8A00000BF00BFDAE7000070B5044645
:1021D000002500260CB9012070BD94F8A10028B993
:1021E000002084F8A000204600F07EF8022084F849
:1021F000A1002068806920F0704021688861D4E9DE
:1022000001010843E168084321690843216889699D
:102210000843216888612068806832490840216845
:102220008860A08A050420688068A1692943084362
:10223000216888602068C0682A4908402168C86011
:10224000A08B05042068C068216A294308432168DF
:10225000C860206800692349084021680861A08C93
:10226000050420680069A16A2943084321680861C0
:10227000206840691B49084021684861A08D050419
:1022800020684069216B294308432168486194F81C
:102290003500050294F8360006042068C06A00F094
:1022A0007F402168C86246EA050094F8341008436C
:1022B0002168C96A08432168C8622068406B40F001
:1022C0000600216848632068806940F001002168A9
:1022D00088610020C4F8A400012084F8A100002037
:1022E0007AE7000000F800F010B586B0044600BFA1
:1022F0004848006840F00800464908600846006801
:1023000000F00800009000BF00BF00BF4148103837
:10231000006840F010003F49103908600846006826
:1023200000F01000009000BF00BF00BF3948001F40
:10233000006840F002003749091F0860084600683D
:1023400000F00200009000BF00BF00BF0846006818
:1023500040F0200008600846006800F0200000906F
:1023600000BF00BF00BF0846006840F040000860A2
:102370000846006800F04000009000BF00BF00BFAA
:102380000846006840F0800008600846006800F0D9
:102390008000009000BF00BF00BF0846006840F406
:1023A000807008600846006800F48070009000BFEC
:1023B00000BF202001900120029003900320049090
:1023C00001A91548FFF754FD4FF4806001900220E9
:1023D000029000200390032004900E20059001A994
:1023E0000E48FFF745FD4FF40C60019001A90C4821
:1023F000FFF73EFD4FF47E40019001A90948FFF729
:1024000037FD40F2F760019001A90748FFF730FD62
:1024100006B010BDE44402580004025800140258EB
:1024200000180258001C0258002002582DE9F04103
:1024300004460E461746984600BF94F8A0000128AF
:1024400002D10220BDE8F081012084F8A00000BF85
:10245000022084F8A10008EB880000EBC80104F119
:10246000380000EB81052E60A86A30446860AF60D8
:10247000E86A3844E86042462946204605F08EFF67
:1024800001202168486284F8A10000BF002084F880
:10249000A00000BF00BFD5E72DE9F04104460E467D
:1024A0001746984600BF94F8A000012802D10220E8
:1024B000BDE8F081012084F8A00000BF022084F86C
:1024C000A10008EB880000EBC80104F1380000EB24
:1024D0008105286830446860A8683844E860AE62C6
:1024E000EF6242462946204605F058FF0120216848
:1024F000486284F8A10000BF002084F8A00000BF5B
:1025000000BFD5E74178154A11600178F9B1121D75
:1025100041681160017B0907C27A41EA0261827A4F
:1025200041EAC241427B41EA8241827B41EA424127
:10253000C27B41EA0241427A41EA0221027A41EA3F
:10254000420102781143054A0832116005E000217A
:10255000024A121D1160121D1160704798ED00E0D3
:1025600000BF00BF00BFBFF35F8F00BF00BF00BF51
:102570000548006820F480300349086000200249C3
:10258000703108607047000024ED00E040F0010168
:102590000D4A11600C497039096841F480310A4ACA
:1025A000703A116000BF00BF00BFBFF34F8F00BF84
:1025B00000BF00BF00BF00BF00BFBFF36F8F00BFF1
:1025C00000BF00BF7047000094ED00E07047014677
:1025D0000846002809DB00F01F0301229A40430946
:1025E0009B0003F1E023C3F8002100BF70472DE9F1
:1025F000F05F80460D46164607F018FA0746394642
:102600002A46334601F00700C0F1070ABAF1040F69
:1026100002D94FF0040A01E0C0F1070AD14600F1E7
:10262000040ABAF1070F02D24FF0000A01E0A0F14C
:10263000030AD4464FF0010A0AFA09FAAAF1010A7C
:102640000AEA020A0AFA0CFA4FF0010B0BFA0CFB29
:10265000ABF1010B0BEA030B4AEA0B04214640469F
:1026600007F0ECF9BDE8F09F00BF00F00702064B51
:1026700019684FF6FF031940044B0B4343EA02214C
:10268000014B196000BF70470CED00E00000FA0537
:1026900010B501F067F90949096801F470614FF458
:1026A000807292FAA2F2B2FA82F2D140044A515CEC
:1026B000C840044908600846006810BD1844025824
:1026C000DAAA00080400002410B501F003F9074954
:1026D000096801F07001102292FAA2F2B2FA82F2B5
:1026E000D140034A515CC84010BD0000204402584C
:1026F000DAAA000870B50146002201200023002458
:102700009FED811AB0EE410A9FED7F1AF0EE410A6B
:102710007E4D2D6805F003027C4D2D68C5F3053014
:102720007A4D2D1D2D6805F01003784D14352D6858
:10273000C5F3CC0515FB03F501EE105AB8EE411AAE
:10274000B0EE410A22B1012A4DD0022A7DD169E0C2
:102750006E4D283D2D68C5F340152DB36B4D283DBA
:102760002D68C5F3C1066A4D25FA06F4B4FBF0F5F1
:1027700001EE105AF8EE411A9FED661A80EE012A1A
:10278000624D10352D68C5F3080501EE105AB8EEFC
:10279000411A32EE011AB7EE002A31EE021A21EE8A
:1027A000811AF0EE410A1DE0594DB5FBF0F501EE3E
:1027B000105AF8EE411A9FED571A80EE012A534D38
:1027C00010352D68C5F3080501EE105AB8EE411A10
:1027D00032EE011AB7EE002A31EE021A21EE811A0A
:1027E000F0EE410A5EE04C4DB5FBF0F501EE105AFB
:1027F000B8EE412A9FED471AC0EE011A434D10353D
:102800002D68C5F3080501EE105AB8EE411A31EEF5
:10281000811AF7EE001A31EE211A22EE011AF0EEBB
:10282000410A3FE03D4DB5FBF0F501EE105AF8EEE0
:10283000411A9FED381A80EE012A344D10352D686B
:10284000C5F3080501EE105A00E00CE0B8EE411A9D
:1028500032EE011AB7EE002A31EE021A21EE811A89
:10286000F0EE410A1EE02C4DB5FBF0F501EE105ADA
:10287000B8EE412A9FED271AC0EE011A234D1035FC
:102880002D68C5F3080501EE105AB8EE411A31EE75
:10289000811AF7EE001A31EE211A22EE011AF0EE3B
:1028A000410A00BF00BF194D10352D68C5F34625FC
:1028B0006D1C01EE105AB8EE411AC0EE811ABCEE42
:1028C000E11A81ED001A114D10352D68C5F306454A
:1028D0006D1C01EE105AB8EE411AC0EE811ABCEE22
:1028E000E11A81ED011A094D10352D68C5F3066511
:1028F0006D1C01EE105AB8EE411AC0EE811ABCEE02
:10290000E11A81ED021A70BD00000000284402584F
:102910000090D0030000004600093D0040787D0192
:1029200070B5014600220120002300249FED811A8A
:10293000B0EE410A9FED7F1AF0EE410A7E4D2D6800
:1029400005F003027C4D2D68C5F305507A4D2D1D11
:102950002D6805F48073784D1C352D68C5F3CC05C2
:1029600015FB03F501EE105AB8EE411AB0EE410A1C
:1029700022B1012A4DD0022A7DD169E06E4D283D59
:102980002D68C5F340152DB36B4D283D2D68C5F35B
:10299000C1066A4D25FA06F4B4FBF0F501EE105AB3
:1029A000F8EE411A9FED661A80EE012A624D183545
:1029B0002D68C5F3080501EE105AB8EE411A32EE43
:1029C000011AB7EE002A31EE021A21EE811AF0EE5A
:1029D000410A1DE0594DB5FBF0F501EE105AF8EE35
:1029E000411A9FED571A80EE012A534D18352D6874
:1029F000C5F3080501EE105AB8EE411A32EE011A7D
:102A0000B7EE002A31EE021A21EE811AF0EE410AE9
:102A10005EE04C4DB5FBF0F501EE105AB8EE412AE0
:102A20009FED471AC0EE011A434D18352D68C5F3C6
:102A3000080501EE105AB8EE411A31EE811AF7EE90
:102A4000001A31EE211A22EE011AF0EE410A3FE09F
:102A50003D4DB5FBF0F501EE105AF8EE411A9FED31
:102A6000381A80EE012A344D18352D68C5F3080553
:102A700001EE105A00E00CE0B8EE411A32EE011AF5
:102A8000B7EE002A31EE021A21EE811AF0EE410A69
:102A90001EE02C4DB5FBF0F501EE105AB8EE412AC0
:102AA0009FED271AC0EE011A234D18352D68C5F386
:102AB000080501EE105AB8EE411A31EE811AF7EE10
:102AC000001A31EE211A22EE011AF0EE410A00BF7F
:102AD00000BF194D18352D68C5F346256D1C01EE54
:102AE000105AB8EE411AC0EE811ABCEEE11A81ED1F
:102AF000001A114D18352D68C5F306456D1C01EE01
:102B0000105AB8EE411AC0EE811ABCEEE11A81EDFE
:102B1000011A094D18352D68C5F306656D1C01EEC7
:102B2000105AB8EE411AC0EE811ABCEEE11A81EDDE
:102B3000021A70BD00000000284402580090D00323
:102B40000000004600093D0040787D012DE9F0417C
:102B5000044600250026206800F00060B0F1006FF8
:102B600030D1606E48B1B0F5801F0DD0B0F5001FB8
:102B700010D0B0F5401F15D113E0F948006840F4BB
:102B80000030F74908600FE00221201D05F014FD18
:102B9000054609E0022104F1240005F0A5FD0546E3
:102BA00002E001E0012500BF00BF55B9EC48243028
:102BB000006820F44010616E0843E9492431086040
:102BC00000E02E43208800F48070B0F5807F2DD186
:102BD000606D05281AD2DFE800F0030A101718000C
:102BE000DF48006840F40030DD49086010E0002153
:102BF000201D05F0E1FC05460AE0002104F1240057
:102C000005F072FD054603E002E001E0012500BF8A
:102C100000BF55B9D2482430006820F00700616D2C
:102C20000843CF492431086000E02E43208800F497
:102C30000070B0F5007F33D1A06D802817D003DC81
:102C400040B140281CD10CE0C02817D0B0F5807FDF
:102C500016D114E0C248006840F40030C049086052
:102C600010E00021201D05F0A7FC05460AE0002128
:102C700004F1240005F038FD054603E002E001E020
:102C8000012500BF00BF55B9B5482430006820F4C5
:102C9000E070A16D0843B2492431086000E02E4382
:102CA000208800F48060B0F5806F38D1D4F8A4009B
:102CB000B0F5800F19D004DC50B1B0F5001F1DD164
:102CC0000DE0B0F5C00F17D0B0F5000F16D114E02D
:102CD000A348006840F40030A149086010E00021DA
:102CE000201D05F069FC05460AE0002104F12400DE
:102CF00005F0FAFC054603E002E001E0012500BF13
:102D000000BF5DB996482C30006820F46000D4F80C
:102D1000A410084392492C31086000E02E4320881B
:102D200000F40060B0F5006F38D1D4F8A800B0F11D
:102D3000007F19D004DC50B1B0F1807F1DD10DE0CF
:102D4000B0F1407F17D0B0F1806F16D114E0844805
:102D5000006840F400308249086010E00021201D26
:102D600005F02AFC05460AE0002104F1240005F0E4
:102D7000BBFC054603E002E001E0012500BF00BF07
:102D80005DB977482C30006820F0E060D4F8A810D6
:102D9000084373492C31086000E02E43206800F09E
:102DA0000070B0F1007F27D1A06CA0B1102804D032
:102DB000202809D030280FD10CE06948006840F481
:102DC00000306749086009E00221201D05F0F4FB8E
:102DD000054603E002E001E0012500BF00BF55B950
:102DE0005F482030006820F03000A16C08435C4947
:102DF0002031086000E02E43208800F48050B0F5B8
:102E0000805F36D1E06DB0F5005F19D004DC50B1C1
:102E1000B0F5805F1DD10DE0B0F5405F17D0B0F583
:102E2000804F16D114E04E48006840F400304C4901
:102E3000086010E00021201D05F0BEFB05460AE0F9
:102E4000002104F1240005F04FFC054603E002E0F8
:102E500001E0012500BF00BF55B94148243000689A
:102E600020F4E040E16D08433D492431086000E072
:102E70002E43208800F40050B0F5005F34D1206E5E
:102E8000B0F5403F1DD007DC68B1B0F5803F0BD0F6
:102E9000B0F5003F18D10DE0B0F5802F12D0B0F59D
:102EA000A02F11D10FE011E00121201D05F084FBBE
:102EB00005460BE0012104F1240005F015FC054650
:102EC00004E003E002E001E0012500BF00BF55B9C6
:102ED00023482430006820F4E020216E0843204974
:102EE0002431086000E02E43208800F48040B0F5D3
:102EF000804F38D1D4F8AC00B0F1405F1DD007DC72
:102F000068B1B0F1805F0BD0B0F1005F18D10DE077
:102F1000B0F1804F12D0B0F1A04F11D10FE011E00D
:102F20000121201D05F048FB05460BE0012104F1BD
:102F3000240005F0D9FB054604E003E002E001E0CF
:102F4000012500BF00BF6DB905482C30006820F096
:102F5000E040D4F8AC10084301492C31086002E08D
:102F60002C4402582E43208800F40040B0F5004F56
:102F700026D1E06E98B1B0F1805F03D0B0F1005F70
:102F80000ED106E0FA48006840F40030F8490860C5
:102F900008E00121201D05F00FFB054602E001E0DD
:102FA000012500BF00BF55B9F1482430006820F06A
:102FB0004050E16E0843EE492431086000E02E43A2
:102FC000206800F08070B0F1807F27D1606CA0B1E4
:102FD000012804D0022809D003280FD10CE0E448CE
:102FE000006840F40030E249086009E00221201D39
:102FF00005F0E2FA054603E002E001E0012500BF2A
:1030000000BF55B9DA482030006820F00300616C39
:103010000843D7492031086000E02E43206800F4BF
:103020008000B0F5800F7DD1D248006840F48070F8
:10303000D0490860FFF754F8074606E0FFF750F85C
:10304000C01B642801D9032505E0CA48006800F4C4
:1030500080700028F2D000BF8DBBC54844300068A6
:1030600000F44070B4F8B01001F44071884214D0FC
:10307000BF484430006820F44078BD4844300068C0
:1030800040F48030BA49443108600846006820F4B2
:10309000803008600846C0F80080D4F8B000B0F571
:1030A000807F15D1FFF71CF8074609E0FFF718F8F5
:1030B000C01B41F28831884202D9032507E038E07D
:1030C000AB4844300068C0F340000028EED000BF99
:1030D0004DBB00BFB4F8B00000F44070B0F5407FC5
:1030E0000ED1A3481C38006820F47C51A24AD4F8C1
:1030F000B000104041EA10109D491C39086007E0FB
:103100009B481C38006820F47C5099491C390860A1
:10311000974844300068B4F8B010C1F30B0108437D
:10312000934901E006E002E04431086002E02E43EA
:1031300000E02E43207800F0010068B3A06F18284B
:1031400019D005DC48B1082808D0102816D10BE0AA
:10315000202811D0282811D10FE011E00121201DD5
:1031600005F02AFA05460BE0012104F1240005F0E0
:10317000BBFA054604E003E002E001E0012500BFE0
:1031800000BF55B97A482830006820F03800A16F98
:10319000084377492831086000E02E43207800F08A
:1031A0000200022828D1606F062815D2DFE800F05F
:1031B00003040A11121311E00121201D05F0FCF98E
:1031C00005460BE0012104F1240005F08DFA0546C7
:1031D00004E003E002E001E0012500BF00BF55B9B3
:1031E00063482830006820F00700616F0843604999
:1031F0002831086000E02E43207800F00400042805
:103200002AD1D4F89000062815D2DFE800F0030494
:103210000A11121311E00121201D05F0CDF9054618
:103220000BE0012104F1240005F05EFA054604E0FC
:1032300003E002E001E0012500BF00BF5DB94C489A
:103240002C30006820F00700D4F89010084348495B
:103250002C31086000E02E43207800F02000202868
:1032600036D1D4F88C00B0F1405F1DD007DC68B1D6
:10327000B0F1805F0BD0B0F1005F18D10DE0B0F17C
:10328000804F12D0B0F1A04F11D10FE011E000211A
:10329000201D05F091F905460BE0022104F1240000
:1032A00005F022FA054604E003E002E001E0012512
:1032B00000BF00BF5DB92E482830006820F0E04014
:1032C000D4F88C1008432A492831086000E02E43C6
:1032D000207800F04000402836D1D4F89800B0F5AE
:1032E000406F1DD007DC68B1B0F5806F0BD0B0F532
:1032F000006F18D10DE0B0F5805F12D0B0F5A05F7F
:1033000011D10FE011E00021201D05F055F905460F
:103310000BE0022104F1240005F0E6F9054604E083
:1033200003E002E001E0012500BF00BF5DB91048E5
:103330002C30006820F4E050D4F8981008430C4971
:103340002C31086000E02E43207800F080008028B7
:103350003BD1D4F89C00B0F5C04F24D00EDCA0B116
:10336000B0F5005F12D0B0F5804F1FD114E000001F
:103370002C44025800480258FFFCFF0FB0F5004FE4
:1033800012D0B0F5204F11D10FE011E00021201D27
:1033900005F012F905460BE0022104F1240005F0C6
:1033A000A3F9054604E003E002E001E0012500BFC7
:1033B00000BF4DB9B248006820F46040D4F89C10BA
:1033C0000843AF49086000E02E43207800F0080071
:1033D000082816D1D4F88000B0F5805F06D102210C
:1033E00004F1240005F080F906430AE0A448001F18
:1033F000006820F44050D4F880100843A049091F09
:103400000860207800F01000102814D1D4F894003F
:10341000B0F5807F06D1022104F1240005F064F9A3
:10342000064308E09648006820F44070D4F89410F1
:10343000084393490860206800F40020B0F5002F8D
:1034400026D1D4F8A00030B1B0F5803F09D0B0F556
:10345000003F0ED10CE00021201D05F0ADF805461F
:1034600009E0022104F1240005F03EF9054602E0DE
:1034700001E0012500BF00BF4DB98148006820F47C
:103480004030D4F8A01008437D49086000E02E4386
:10349000206800F48020B0F5802F2DD1D4F884006E
:1034A000B0F5801F06D0B0F5001F0CD0B0F5401F5E
:1034B00011D10FE072482C38006840F40030704998
:1034C0002C39086009E0012104F1240005F00CF911
:1034D000054602E001E0012500BF00BF5DB9684874
:1034E000001F006820F44010D4F884100843644999
:1034F000091F086000E02E43206800F48030B0F51A
:10350000803F24D1E06C18B1B0F5803F0FD108E0C6
:103510005B482C38006840F4003059492C39086069
:1035200007E00221201D05F047F8054601E00125CE
:1035300000BF00BF55B952480C38006820F48030F5
:10354000E16C08434E490C39086000E02E432068C6
:1035500000F00050B0F1005F05D1022104F1240019
:1035600005F0C2F80643206800F40030B0F5003FD3
:1035700027D1E06FA0B1B0F5807F06D0B0F5007F15
:103580000CD0B0F5407F0CD109E03D482C380068E4
:1035900040F400303A492C39086004E003E002E0CE
:1035A00001E0012500BF00BF55B93548001F006884
:1035B00020F44070E16F08433149091F086000E0C2
:1035C0002E43206800F48010B0F5801F09D12C48EC
:1035D0000838006820F00040216F08432849083966
:1035E0000860206800F08050B0F1805F0AD1244864
:1035F0004838006820F48040D4F8B41008432049CB
:1036000048390860206800F40010B0F5001F09D1A7
:103610001B480838006820F08070A16E08431849E4
:1036200008390860206800F08040B0F1804F11D167
:1036300000BF13484838006820F40040104948395A
:10364000086008460068D4F8B81008430C494839A7
:10365000086000BF206800F00040B0F1004F09D1C1
:1036600007480C38006820F04050216D0843044999
:103670000C39086016B90020BDE8F0810120FBE795
:103680005844025870B504460D4600268D4800681F
:1036900000F00700A8420ED28A48006820F0070018
:1036A0002843884908600846006800F00700A842DF
:1036B00001D0012070BD207800F00200022807D15F
:1036C0008148006820F00F00E16808437E490860E7
:1036D000207800F00100002851D07B48006820F4D9
:1036E0007060A1680843784908606068022807D1C3
:1036F000754818380068C0F34040F8B90120D9E790
:103700006068032807D1704818380068C0F340602B
:10371000A0B90120CEE76068012807D16A481838AF
:103720000068C0F3002048B90120C3E76648183894
:103730000068C0F3800008B90120BBE76248083880
:10374000006820F00700616808435F490839086095
:10375000FEF7C6FC06466068022811D108E0FEF7B5
:10376000BFFC801B41F28831884201D90320A1E7C8
:1037700055480838006800F038001028EFD13AE0CA
:103780006068032811D108E0FEF7AAFC801B41F213
:103790008831884201D903208CE74B4808380068FB
:1037A00000F038001828EFD125E06068012811D119
:1037B00008E0FEF795FC801B41F28831884201D970
:1037C000032077E740480838006800F038000828F0
:1037D000EFD110E008E0FEF783FC801B41F2883156
:1037E000884201D9032065E737480838006800F0AF
:1037F00038000028EFD13348006800F00700A842E5
:103800000ED93048006820F0070028432D49086091
:103810000846006800F00700A84201D0012049E7EF
:10382000207800F00400042807D12748006820F021
:1038300070002169084324490860207800F00800DE
:10384000082809D12048001D006820F07000616937
:1038500008431D49091D0860207800F01000102859
:1038600009D11948001D006820F4E060A1690843EF
:103870001549091D0860207800F02000202809D192
:1038800011480830006820F07000E16908430E49D3
:103890000831086000F066F80B49096801F47061AE
:1038A0004FF4807292FAA2F2B2FA82F2D140074A41
:1038B000515CC840064908600F20FEF731FC00202B
:1038C000F8E600000020005218440258DAAA000866
:1038D0000400002410B5FEF7DBFE0949096801F079
:1038E0000F01012292FAA2F2B2FA82F2D140054A05
:1038F000515CC840044908600846006810BD0000DB
:1039000018440258DAAA00080800002410B5FFF78E
:10391000E1FF0749096801F07001102292FAA2F252
:10392000B2FA82F2D140034A515CC84010BD000097
:103930001C440258DAAA000810B5FFF7CBFF07496C
:10394000096801F4E0614FF4807292FAA2F2B2FACF
:1039500082F2D140024A515CC84010BD1C4402585A
:10396000DAAA000870B5012500EE905A0022012164
:1039700000230024DFED861AB0EE610ADFED841A21
:10398000B0EE611A0020834D2D6805F0380535B181
:10399000082D15D0102D15D0182D7CD114E07D4D9B
:1039A000103D2D68C5F3401545B17A4D103D2D6889
:1039B000C5F3C106784D25FA06F000E07648E5E04B
:1039C0007648E3E07648E1E0724D18352D6805F061
:1039D0000302704D18352D68C5F305116D4D1C356A
:1039E0002D6805F001036B4D24352D68C5F3CC051A
:1039F00015FB03F501EE905AF8EE611AB0EE610A7C
:103A000022B1012A4FD0022A7DD16BE0614D103DD9
:103A10002D68C5F340152DB35E4D103D2D68C5F3DF
:103A2000C1065D4D25FA06F4B4FBF1F501EE905A9E
:103A3000B8EE612ADFED5B1AC0EE212A554D203524
:103A40002D68C5F3080501EE905AF8EE611A72EE82
:103A5000A11AF7EE002A71EEA21A62EE211AB0EE58
:103A6000611A1FE04C4DB5FBF1F501EE905AB8EE2E
:103A7000612ADFED4C1AC0EE212A464D20352D6813
:103A8000C5F3080501EE905AF8EE611A72EEA11A1C
:103A9000F7EE002A00E077E071EEA21A62EE211A3A
:103AA000B0EE611A5EE03D4DB5FBF1F501EE905AC6
:103AB000B8EE612ADFED3B1AC0EE212A354D2035E4
:103AC0002D68C5F3080501EE905AF8EE611A72EE02
:103AD000A11AF7EE002A71EEA21A62EE211AB0EED8
:103AE000611A3FE02E4DB5FBF1F501EE905AB8EEAC
:103AF000612ADFED2C1AC0EE212A264D20352D68D3
:103B0000C5F3080500E00EE001EE905AF8EE611AE8
:103B100072EEA11AF7EE002A71EEA21A62EE211AD5
:103B2000B0EE611A1EE01D4DB5FBF1F501EE905AA5
:103B3000F8EE612ADFED1B1A80EE212A154D2035A3
:103B40002D68C5F3080501EE905AF8EE611A72EE81
:103B5000211AB7EE002A71EE821A62EEA11AB0EEB7
:103B6000611A00BF00BF0B4D20352D68C5F34625F7
:103B70006D1C00EE905AF8EE601A81EE212AFCEEE0
:103B8000C21A11EE900A01E0044800BF00BF70BDE8
:103B900000000000104402580090D00300093D00CE
:103BA00040787D010000004670B50446002520786D
:103BB00000F00100002872D0F948006800F03800D9
:103BC00010280CD0F648006800F03800182812D1F0
:103BD000F3481830006800F0030002280BD1F048C9
:103BE00010380068C0F3404000286DD0606800289D
:103BF0006AD1012070BD00BF6068B0F5803F08D178
:103C0000E7481038006840F48030E5491039086012
:103C10002EE0606868B9E2481038006820F480300F
:103C2000DF49103908600846006820F480200860E9
:103C30001EE06068B0F5A02F0DD1D948103800689B
:103C400040F48020D649103908600846006840F4E6
:103C5000803008600CE0D2481038006820F48030D2
:103C6000CF49103908600846006820F480200860B9
:103C700000BF6068A0B1FEF733FA054608E0FEF722
:103C80002FFA401B41F28831884201D90320B1E765
:103C9000C34810380068C0F340400028EFD013E05C
:103CA000FEF71EFA054608E0FEF71AFA401B41F23D
:103CB0008831884201D903209CE7B9481038006850
:103CC000C0F340400028EFD1207800F00200022825
:103CD00047D1B348006800F0380058B1B0480068D8
:103CE00000F0380018283ED1AD481830006800F0C8
:103CF0000300B8BBAA4810380068C0F3800018B1B0
:103D0000E06808B9012075E7A5481038006820F080
:103D10001900E1680843A24910390860FEF7E0F98C
:103D2000054606E0FEF7DCF9401B022801D9032016
:103D300060E79B4810380068C0F380000028F1D08D
:103D400097480C38006820F47C304FF47C3292FAAB
:103D5000A2F2B2FA82F221699140084390490C39EB
:103D600008604AE0FFE7E06868B38D4810380068F3
:103D700020F01900E1680843894910390860FEF70E
:103D8000AFF9054606E0FEF7ABF9401B022801D962
:103D900003202FE7824810380068C0F38000002815
:103DA000F1D07F480C38006820F47C304FF47C322E
:103DB00092FAA2F2B2FA82F221699140084378495C
:103DC0000C39086019E076481038006820F00100CE
:103DD000734910390860FEF783F9054606E0FEF7DF
:103DE0007FF9401B022801D9032003E76C481038F3
:103DF0000068C0F380000028F1D1207800F01000A6
:103E0000102877D16648006800F0380008280CD0E8
:103E10006348006800F03800182823D16048183043
:103E2000006800F0030001281CD15D4810380068CC
:103E3000C0F3002020B1E069802801D00120D9E63C
:103E400057480C38006820F0F8404FF0F84292FADA
:103E5000A2F2B2FA82F2216A9140084350490C3929
:103E6000086047E0E06958B34D481038006840F0FA
:103E700080004B4910390860FEF732F9054606E02C
:103E8000FEF72EF9401B022801D90320B2E6444870
:103E900010380068C0F300200028F1D040480C38EA
:103EA000006820F0F8404FF0F84292FAA2F2B2FA1D
:103EB00082F2216A9140084339490C39086019E0BF
:103EC00037481038006820F0800035491039086004
:103ED000FEF706F9054606E0FEF702F9401B022848
:103EE00001D9032086E62E4810380068C0F3002070
:103EF0000028F1D1207800F00800082836D1606948
:103F0000D0B127486430006840F001002449643192
:103F10000860FEF7E5F8054606E0FEF7E1F8401B0D
:103F2000022801D9032065E61D4864300068C0F30B
:103F300040000028F1D019E019486430006820F0F2
:103F40000100174964310860FEF7CAF8054606E02B
:103F5000FEF7C6F8401B022801D903204AE61048A4
:103F600064300068C0F340000028F1D1207800F0F0
:103F70002000202834D1A069D8B109481038006841
:103F800040F48050064910390860FEF7A9F805464C
:103F900008E0FEF7A5F8401B022803D9032029E614
:103FA00010440258AF480068C0F340300028F0D0F9
:103FB00016E0AC48006820F48050AA490860FEF77B
:103FC0008FF8054606E0FEF78BF8401B022801D962
:103FD00003200FE6A3480068C0F340300028F2D168
:103FE000207800F0040004287DD19F48006840F448
:103FF00080709D490860FEF773F8054606E0FEF7FD
:104000006FF8401B642801D90320F3E59648006847
:1040100000F480700028F2D000BFA068012808D109
:1040200090487030006840F001008E49703108609F
:104030002DE0A06868B98B487030006820F001005E
:104040008849703108600846006820F00400086064
:104050001DE0A06805280DD182487030006840F04E
:1040600004008049703108600846006840F0010093
:1040700008600CE07B487030006820F0010079494E
:10408000703108600846006820F00400086000BF36
:10409000A068A0B1FEF724F8054608E0FEF720F876
:1040A000401B41F28831884201D90320A2E56D48C6
:1040B00070300068C0F340000028EFD013E0FEF736
:1040C0000FF8054608E0FEF70BF8401B41F2883177
:1040D000884201D903208DE5624870300068C0F342
:1040E00040000028EFD1606A00287CD05D48103085
:1040F000006800F03800182876D0606A022874D171
:104100005848006820F0807056490860FDF7E8FFC5
:10411000054606E0FDF7E4FF401B022801D9032015
:1041200068E550480068C0F340600028F2D100BF45
:10413000D4E90A1041EA00104A492831096840F2DE
:10414000F33291430843474928310860208E401ECE
:10415000C0F30800616B491E4FF47E4202EA412120
:104160000843218F491ED20102EA014108433C2144
:10417000095D491E120202EA0161084339493031E2
:10418000086000BF081D00684FF6F87188434FF6BD
:10419000F87292FAA2F2B2FA82F2A16C914008434C
:1041A0003049343108602F482C30006820F00C0072
:1041B000216C08432B492C3108600846006820F028
:1041C0000200616C084327492C31086008460068EA
:1041D00040F4803008600846006840F40030086011
:1041E0000846006802E03BE038E01FE040F4802031
:1041F00008600846006840F001000860194800683F
:1042000040F0807017490860FDF76AFF054606E038
:10421000FDF766FF401B022801D90320EAE411489C
:104220000068C0F340600028F2D019E00D48006833
:1042300020F080700B490860FDF752FF054606E04C
:10424000FDF74EFF401B022801D90320D2E40548A8
:104250000068C0F340600028F2D101E00120C9E409
:104260000020C7E4004402580048025870B50446D4
:104270000D460CB9012070BD94F82C0028B900201F
:1042800084F82D00204600F019F8022084F82C0054
:10429000211D2068FDF79DFC2946D4E90002FDF7A9
:1042A000EDFC0548006840F000400349086001202B
:1042B00084F82C000020DEE70040005210B586B0E4
:1042C000044600BF4648006840F0020044490860C8
:1042D0000846006800F00200009000BF00BF00BF69
:1042E0003F482038006840F480503D49203908603C
:1042F0000846006800F48050009000BF00BF00BF77
:1043000037481438006840F0040035491439086013
:104310000846006800F00400009000BF00BF00BF26
:104320000846006840F0080008600846006800F091
:104330000800009000BF00BF00BF0846006840F0C2
:10434000100008600846006800F01000009000BFF0
:1043500000BF00BF0846006840F020000860084623
:10436000006800F02000009000BF00BF00BF0846BA
:10437000006840F0400008600846006800F0400017
:10438000009000BF00BF0D2001900220029001208C
:104390000390032004900C20059001A91148FDF71B
:1043A00067FD4CF20370019001A90F48FDF760FD15
:1043B0004FF68370019001A90C48FDF759FD4FF6A7
:1043C0003F00019001A90A48FDF752FD48F237105D
:1043D000019001A90748FDF74BFD06B010BD000094
:1043E000F444025800080258000C02580010025809
:1043F000001402580018025870B504460D4694F88F
:104400002C00022800D170BD022084F82C0029461F
:104410002068FDF718FC012084F82C000020F2E74A
:1044200070B504460D46164694F82C00022800D1BB
:1044300070BD022084F82C00324629462068FDF722
:1044400009FC2868022803D1052084F82C0002E02A
:10445000012084F82C000020EAE7000070B5044633
:104460000E4615460CB9012070BD94F8450028B9D8
:10447000002084F84400204600F024F804F10801EC
:104480002068FDF737FB3146A2682068FDF772FB14
:104490002946E36AD4E90102FDF708FBA168206818
:1044A00050F8210040F00100A268216841F8220084
:1044B0000348006840F00040014908600020D3E74D
:1044C0000040005210B586B0044600BF2048006886
:1044D00040F480501E4908600846006800F480508F
:1044E000009000BF00BF00BF19480C30006840F0CA
:1044F000080017490C3108600846006800F0080001
:10450000009000BF00BF00BF0846006840F01000E8
:1045100008600846006800F01000009000BF00BF6F
:104520004EF2B3700190022002900120039003200C
:1045300004900C20059001A90648FDF799FC4FF660
:104540008070019001A90448FDF792FC06B010BDEF
:10455000D4440258000C025800100258042808D114
:104560004FF0E021096941F004014FF0E0221161B0
:1045700007E04FF0E021096921F004014FF0E0224B
:104580001161704770B504462546681EB0F1807F02
:1045900001D301200FE0681E4FF0E02148610F2198
:1045A0004FF0FF3005F04AFA00204FF0E02188611B
:1045B00007200861002070BD7047704710B50446A1
:1045C0000CB9012010BD94F83D0028B9002084F8F2
:1045D0003C00204600F00CF8022084F83D00211D2C
:1045E000206804F011FB012084F83D000020E9E779
:1045F00038B504460D492068884215D100BF0C48E3
:10460000006840F002000A4908600846006800F0AF
:104610000200009000BF00BF032201211D20FDF712
:10462000E6FF1D20FDF7D3FF38BD00000004004069
:10463000E844025801460868C06840F001000A6872
:10464000D0600868008840F001000A6810800020EF
:104650007047704710B5044620680069C0F34000F9
:10466000D8B12068C068C0F34000B0B16FF002005C
:1046700021680861012020772068806900F003002C
:1046800018B12046FFF7E5FF05E0204600F0BEF830
:10469000204600F0BCF80020207720680069C0F3B5
:1046A0008000D8B12068C068C0F38000B0B16FF05E
:1046B000040021680861022020772068806900F4E6
:1046C000407018B12046FFF7C4FF05E0204600F017
:1046D0009DF8204600F09BF80020207720680069B4
:1046E000C0F3C000D8B12068C068C0F3C000B0B14A
:1046F0006FF0080021680861042020772068C069F5
:1047000000F0030018B12046FFF7A3FF05E02046A4
:1047100000F07CF8204600F07AF80020207720682E
:104720000069C0F30010D8B12068C068C0F3001061
:10473000B0B16FF010002168086108202077206870
:10474000C06900F4407018B12046FFF782FF05E011
:10475000204600F05BF8204600F059F80020207752
:104760002068006900F0010058B12068C06800F0BE
:10477000010030B16FF0010021680861204600F0AF
:1047800047F820680069C0F3C01058B12068C068BD
:10479000C0F3C01030B16FF080002168086120467E
:1047A000FFF70AFF20680069C0F3002058B12068B5
:1047B000C068C0F3C01030B16FF08000216808619C
:1047C0002046FFF7F9FE20680069C0F3801058B159
:1047D0002068C068C0F3801030B16FF040002168DD
:1047E0000861204600F022F820680069C0F34010FC
:1047F00058B12068C068C0F3401030B16FF020009D
:10480000216808612046FFF7D8FE10BD7047704749
:1048100010B504460348844203D101210248FDF744
:1048200055FC10BDD00A00240004025870477047A0
:10483000704701460022002391F8792091F87A30E0
:1048400042EA0300704700002DE9F0410446206869
:10485000C569206807682068866805F00F08B8F108
:10486000000F0DD105F0200050B107F0200010B965
:1048700006F0805020B1204604F007FBBDE8F0812F
:10488000B8F1000F72D05D48304018B907F490704D
:1048900000287AD005F0010048B107F4807030B1EB
:1048A000012021680862E06F40F00100E06705F038
:1048B000020048B106F0010030B102202168086210
:1048C000E06F40F00400E06705F0040048B106F036
:1048D000010030B1042021680862E06F40F002005E
:1048E000E06705F0080078B107F0200028B906F06D
:1048F000805010B906F0010030B10820216808622C
:10490000E06F40F00800E067E06F70B305F0200052
:1049100040B107F0200010B906F0805010B12046D9
:1049200004F0B3FAE06F00F0080020B92068806856
:1049300000F0400018B3204604F087FA2068806831
:1049400000F04000B8B12068806820F04000216885
:104950008860606F58B12A48616F0865606FFDF725
:10496000DBF910B1606F016D88470DE00DE0204666
:10497000FFF75EFF08E02046FFF75AFF04E02046FD
:10498000FFF756FF0020E06778E705F4801078B164
:1049900006F4800060B14FF4801021680862202086
:1049A00084F8790084F87A002046FFF740FF65E735
:1049B00005F0800048B107F0800010B906F400004F
:1049C00018B1204604F078FF58E705F0400030B1F8
:1049D00007F0400018B1204604F047FA4EE705F40E
:1049E000000040B107F0804028B12068006820F046
:1049F00080402168086000BF40E70000010000100F
:104A0000338E000810B504460CB9012010BDA06912
:104A100000B100E000BF94F8790028B9002084F8C4
:104A20007800204600F02AF8242084F879002068D5
:104A3000006820F0010021680860204604F06AFA4E
:104A4000012800D1E2E7606B10B1204604F042F982
:104A50002068406820F490402168486020688068A1
:104A600020F02A00216888602068006840F001007A
:104A700021680860204604F0A2F9C7E710B586B0A7
:104A800004462149206888423BD100BF1F48006886
:104A900040F002001D4908600846006800F002006E
:104AA000009000BF00BF00BF18480830006840F405
:104AB00080201649083108600846006800F480200C
:104AC000009000BF00BF4FF4806001900220029070
:104AD00001200390022004900720059001A90C48B2
:104AE000FDF7C6F94FF40060019001A90848FDF7F1
:104AF000BFF92720FDF76BFD012200212720FDF7DC
:104B000076FD06B010BD000000480040E0440258A9
:104B10000004025810B5034693F87A00202867D1A4
:104B200001B10AB9012010BD00BF93F87800012837
:104B300001D10220F7E7012083F8780000BF596611
:104B4000A3F86820A3F86A2000BF9868B0F5805FDA
:104B50000AD1186920B940F2FF10A3F86C001CE0DC
:104B6000FF20A3F86C0018E0986848B9186918B9D4
:104B7000FF20A3F86C0010E07F20A3F86C000CE08D
:104B80009868B0F1805F08D1186918B97F20A3F840
:104B90006C0002E03F20A3F86C0000BF0020D86743
:104BA000222083F87A0000BF002083F8780000BF3D
:104BB0001868806840F001001C68A06018680068F0
:104BC00000F0005060B11868006840F480701C6804
:104BD00020601868806840F080501C68A06005E084
:104BE0001868006840F490701C68206000209AE704
:104BF000022098E71D4A0168914236D11C49098874
:104C000001F4004189BB1A49098801F4804171B15E
:104C1000184909780A2903D00021154A118024E097
:104C20001349098841F40041114A11801DE01149DE
:104C300009780D2906D10E49098841F480410C4AB2
:104C4000118012E00B490978094A1288C2F30D025B
:104C5000094B995406490988491C054A1180114697
:104C60000988C72901DD00211180704700480040F4
:104C70001C0000241E00002488090024704700BF87
:104C8000FEE7000000B587B000BF2448006840F090
:104C90000100224908600846006800F00100019008
:104CA00000BF00BF00BF0846006840F00400086075
:104CB0000846006800F00400019000BF00BF00BF7C
:104CC0000846006840F0800008600846006800F070
:104CD0008000019000BF00BF0120029000200390DF
:104CE000022004900320059002A90D48FDF7C0F8AA
:104CF0004FF4005002900020039001200490032004
:104D0000059002A90748FDF7B3F80C20029002A90C
:104D10000548FDF7ADF807B000BD0000E0440258BB
:104D20000000025800080258001C025810B5044642
:104D3000012C01D12D4908702C480078002839D069
:104D400008212B48FDF7BAF980B104212848FDF766
:104D5000B5F958B14FF400512648FDF7AFF928B125
:104D600001212548FDF7AAF9012823D10A2005F0E1
:104D70007DFA00201D49087008211D48FDF79EF9A5
:104D800008B9012010BD04211948FDF797F908B9A9
:104D90000220F7E74FF400511648FDF78FF908B9E4
:104DA0000320EFE701211448FDF788F901281BD102
:104DB0000420E7E708210E48FDF780F9012813D108
:104DC00004210B48FDF77AF901280DD14103094868
:104DD000FDF774F9012807D101210748FDF76EF9A5
:104DE00010B90120014908700020CBE729000024F8
:104DF000001C0258000802580000025870B5044612
:104E000000260D4805880D48006818B1204602F0BC
:104E1000F5FE0FE00848408845430021084602F0AF
:104E200029FD02F0ADFE002602E005490C80761C4B
:104E3000AE42FAD370BD00005C0B0024740C002459
:104E40000000086010B504465C4884715C48006846
:104E500050B1204602F0FCFE5948C08A57490880EC
:104E60005748008B488010BD002C51D1F020534989
:104E700008804FF4A07048800846808849F241318C
:104E8000884205D04D48808845F21031884214D1BF
:104E90002C204A4908812A2048812B2088810846F5
:104EA000808845F21031884206D14FF4A070434902
:104EB00008804FF4F07048807BE04048808845F2DD
:104EC0001051884210D14FF430503C4908814FF4C2
:104ED000285048814FF42C5088814FF4F07008809E
:104EE0004FF44870488064E03448808841F663118C
:104EF00088425ED12C20314908812B2048812A200C
:104F000088814FF4F07008804FF44870488050E07A
:104F10004FF4A07029490880F02048800846808816
:104F200049F24131884205D02448808845F2103149
:104F3000884207D12C20214908812A2048812B2032
:104F4000888129E01D48808845F21051884210D19F
:104F50004FF43050194908814FF4285048814FF4DC
:104F60002C5088814FF4487008804FF4F0704880CE
:104F700012E01248808841F6631188420CD12C203F
:104F80000E4908812A2048812B2088814FF44870DF
:104F900008804FF4F07048800848808845F210314E
:104FA000884206D14FF4F070044908804FF4A07095
:104FB0004880002002F024FB00BF54E75C0B002473
:104FC000740C002470B504460D461646434800682C
:104FD00028B132462946204602F050FE70BD4048B6
:104FE000808849F24131884205D03D48808845F2A9
:104FF0001031884214D13A49488902F0B5FD201297
:1050000002F0A6FDE0B202F0A3FD3549888902F066
:10501000ABFD281202F09CFDE8B202F099FD54E0CD
:105020002F48808845F21051884220D12C49488968
:1050300002F09AFD201202F08BFD29494989491C92
:1050400088B202F091FDE0B202F082FD2449888925
:1050500002F08AFD281202F07BFD21498989491C52
:1050600088B202F081FDE8B202F072FD2DE01C482A
:10507000808841F66311884227D11948807920B988
:1050800017480088401E001B84B21549488902F069
:105090006BFD201202F05CFDE0B202F059FD20121F
:1050A00002F056FDE0B202F053FD0D49888902F08E
:1050B0005BFD281202F04CFDE8B202F049FD281217
:1050C00002F046FDE8B202F043FD054800890549BB
:1050D0000880891C0E8000BF80E70000740C00244B
:1050E0005C0B0024FEFF076000B595B003F0E6F806
:1050F000FE4988800846808818B102F08BFE02F0D5
:10510000E4B900BFFA48006840F00200F8490860BE
:105110000846006800F00200019000BF00BF202098
:1051200010900120119012900320139010A9F148C3
:10513000FCF79EFE02F00AFAEF48F0490860F048DA
:105140004860002088600021EC48C16001611021A6
:10515000416100218161C16101624FF4805141626E
:10516000002181624FF48041C162002101634163EB
:105170004FF4801181631120099000200A9055207E
:105180000B9000200F901520029000200390152016
:1051900004900020089002AA09A9D848FFF75EF9F8
:1051A000322005F063F8D32002F0DEFC02F0F6F9BD
:1051B000CE49888002F0F2F9CC49888002F0EEF9FD
:1051C000CA498880084680884FF6FF7101EA0020AE
:1051D000C649888002F0E2F9C44989880843C34976
:1051E00088800846808849F24131884278D0D420AE
:1051F00002F0BAFC02F0D2F9BC49888002F0CEF984
:10520000BA49888002F0CAF9B8498880084680887F
:105210004FF6FF7101EA0020B449888002F0BEF920
:10522000B24989880843B14988800846808845F298
:105230001031884254D04FF45A4002F095FC02F0ED
:10524000ADF9AA4988804FF45B4002F08DFC02F072
:10525000A5F9A6498880084680884FF6FF7101EAC3
:105260000020A24988804FF45C4002F07DFC02F0EF
:1052700095F99E49898808439C498880084680881A
:10528000B0F5004F02D145F21050888097488088D1
:1052900045F21051884223D0A12002F065FC02F0B3
:1052A0007DF99249888002F079F990498880084612
:1052B00080884FF6FF7101EA00208C49888002F057
:1052C0006DF98A498988084388498880084680881A
:1052D00045F26171884203D141F6631083498880A9
:1052E0008248808849F2413188427CD1CF2002F047
:1052F0003BFC002002F02CFCC12002F029FC3020F5
:1053000002F026FCED2002F02FFC642002F020FCCD
:10531000032002F01DFC122002F01AFC812002F092
:1053200017FCE82002F020FC852002F011FC102080
:1053300002F00EFC7A2002F00BFCCB2002F014FCF1
:10534000392002F005FC2C2002F002FC002002F0C3
:10535000FFFB342002F0FCFB022002F0F9FBF720F7
:1053600002F002FC202002F0F3FBEA2002F0FCFB3A
:10537000002002F0EDFB002002F0EAFBC02002F06A
:10538000F3FB1B2002F0E4FBC12002F0EDFB012047
:1053900002F0DEFBC52002F0E7FB302002F0D8FB74
:1053A000302002F0D5FBC72002F0DEFBB72002F070
:1053B000CFFB362002F0D8FB482002F0C9FB3A2090
:1053C00002F0D2FB552002F0C3FBB12002F0CCFB6F
:1053D000002002F0BDFB1A2002F0BAFBB62002F05A
:1053E000C3FB0A2000E0A5E002F0B2FBA22002F01D
:1053F000AFFBF22002F0B8FB002002F0A9FB262050
:1054000002F0B2FB012002F0A3FBE02002F0ACFBB3
:105410000F2002F09DFB2A2002F09AFB282002F0C8
:1054200097FB082002F094FB0E2002F091FB08206D
:1054300002F08EFB542002F08BFBA92002F088FBC7
:10544000432002F085FB0A2002F082FB0F2002F0CD
:105450007FFB002002F07CFB002002F079FB0020A3
:1054600002F076FB002002F073FBE12002F07CFBEF
:10547000002002F06DFB152002F06AFB172002F0FD
:1054800067FB072002F064FB112002F061FB06209D
:1054900002F05EFB2B2002F05BFB562002F058FB73
:1054A0003C2002F055FB052002F052FB102002F0D8
:1054B0004FFB0F2002F04CFB3F2002F049FB3F2046
:1054C00002F046FB0F2002F043FB2B2002F04CFBC6
:1054D000002002F03DFB002002F03AFB012002F028
:1054E00037FB3F2002F034FB2A200BE05C0B00244A
:1054F000E04402580004025800400052100B0024FF
:105500000441005202F030FB002002F021FB002099
:1055100002F01EFB002002F01BFBEF2002F018FB44
:10552000112002F021FB782004F0A0FE292002F0D7
:105530001BFBE4E5FE48808845F21031884240F0CC
:105540007C87ED2002F010FB012002F001FBFE2021
:1055500002F0FEFAEE2002F007FBDE2002F0F8FA7D
:10556000212002F0F5FAF12002F0FEFA012002F00B
:10557000EFFADF2002F0F8FA102002F0E9FAC42076
:1055800002F0F2FA8F2002F0E3FAC62002F0ECFA01
:10559000002002F0DDFAE22002F0DAFAE22002F066
:1055A000D7FAE22002F0D4FABF2002F0DDFAAA20F6
:1055B00002F0CEFAB02002F0D7FA0D2002F0C8FABD
:1055C000002002F0C5FA0D2002F0C2FA002002F01D
:1055D000BFFA112002F0BCFA002002F0B9FA19203B
:1055E00002F0B6FA002002F0B3FA212002F0B0FA7D
:1055F000002002F0ADFA2D2002F0AAFA002002F0FD
:10560000A7FA3D2002F0A4FA002002F0A1FA5D20E2
:1056100002F09EFA002002F09BFA5D2002F098FA58
:10562000002002F095FAB12002F09EFA802002F0EC
:105630008FFA002002F08CFA8B2002F089FA002009
:1056400002F086FA962002F083FA002002F080FA37
:10565000B22002F089FA002002F07AFA002002F06B
:1056600077FA022002F074FA002002F071FA0320A7
:1056700002F06EFA002002F06BFAB32002F074FA26
:10568000002002F065FA002002F062FA002002F029
:105690005FFA002002F05CFA002002F059FA0020C4
:1056A00002F056FA002002F053FA002002F050FAFD
:1056B000002002F04DFA002002F04AFA002002F029
:1056C00047FA002002F044FA002002F041FA0020DC
:1056D00002F03EFA002002F03BFA002002F038FA15
:1056E000002002F035FA002002F032FA002002F029
:1056F0002FFA002002F02CFA002002F029FA0020F4
:1057000002F026FA002002F023FA002002F020FA2C
:10571000B42002F029FA8B2002F01AFA002002F0DD
:1057200017FA962002F014FA002002F011FAA120D4
:1057300002F00EFA002002F00BFAB52002F014FA83
:10574000022002F005FA002002F002FA032002F023
:10575000FFF9002002F0FCF9042002F0F9F9002022
:1057600002F0F6F9B62002F0FFF9002002F0F0F99D
:10577000002002F0EDF9B72002F0F6F9002002F067
:10578000E7F9002002F0E4F93F2002F0E1F90020FF
:1057900002F0DEF95E2002F0DBF9002002F0D8F919
:1057A000642002F0D5F9002002F0D2F98C2002F03A
:1057B000CFF9002002F0CCF9AC2002F0C9F90020AA
:1057C00002F0C6F9DC2002F0C3F9002002F0C0F9B3
:1057D000702002F0BDF9002002F0BAF9902002F02A
:1057E000B7F9002002F0B4F9EB2002F0B1F9002083
:1057F00002F0AEF9DC2002F0ABF9002002F0A8F9CB
:10580000B82002F0B1F9002002F0A2F9002002F065
:105810009FF9002002F09CF9002002F099F9002085
:1058200002F096F9002002F093F9002002F090F9BE
:10583000002002F08DF9BA2002F096F9242002F03F
:1058400087F9002002F084F9002002F081F900209D
:1058500002F07EF9C12002F087F9202002F078F9E9
:10586000002002F075F9542002F072F9002002F0D5
:105870006FF9FF2002F06CF9002002F069F9C220F4
:1058800002F072F90A2002F063F9002002F060F9D8
:10589000042002F05DF9002002F05AF9C32002F062
:1058A00063F93C2002F054F9002002F051F93A204B
:1058B00002F04EF9002002F04BF9392002F048F9CD
:1058C000002002F045F9372002F042F9002002F0F2
:1058D0003FF93C2002F03CF9002002F039F9362073
:1058E00002F036F9002002F033F9322002F030F9EC
:1058F000002002F02DF92F2002F02AF9002002F0FA
:1059000027F92C2002F024F9002002F021F92920A7
:1059100002F01EF9002002F01BF9262002F018F90F
:10592000002002F015F9242002F012F9002001E015
:105930005C0B002402F00CF9242002F009F900208D
:1059400002F006F9232002F003F9002002F000F92A
:105950003C2002F0FDF8002002F0FAF8362002F0B8
:10596000F7F8002002F0F4F8322002F0F1F80020FD
:1059700002F0EEF82F2002F0EBF8002002F0E8F839
:105980002C2002F0E5F8002002F0E2F8292002F0D5
:10599000DFF8002002F0DCF8262002F0D9F8002021
:1059A00002F0D6F8242002F0D3F8002002F0D0F85C
:1059B000242002F0CDF8002002F0CAF8232002F0E3
:1059C000C7F8002002F0C4F8C42002F0CDF862202D
:1059D00002F0BEF8002002F0BBF8052002F0B8F893
:1059E000002002F0B5F8842002F0B2F8002002F0A6
:1059F000AFF8F02002F0ACF8002002F0A9F818206F
:105A000002F0A6F8002002F0A3F8A42002F0A0F80B
:105A1000002002F09DF8182002F09AF8002002F011
:105A200097F8502002F094F8002002F091F80C2032
:105A300002F08EF8002002F08BF8172002F088F8B0
:105A4000002002F085F8952002F082F8002002F094
:105A50007FF8F32002F07CF8002002F079F8E620CD
:105A600002F076F8002002F073F8C52002F07CF80E
:105A7000322002F06DF8002002F06AF8442002F0B3
:105A800067F8002002F064F8652002F061F8002059
:105A900002F05EF8762002F05BF8002002F058F881
:105AA000882002F055F8002002F052F8C62002F0DB
:105AB0005BF8202002F04CF8002002F049F8172093
:105AC00002F046F8002002F043F8012002F040F80E
:105AD000002002F03DF8C72002F046F8002002F056
